:100000007FC097C096C095C094C093C092C052C1A3
:1000100090C08FC08EC08DC08CC06AC18AC089C09C
:1000200088C087C086C0C431F92E562CD9297F27B5
:10003000482530233721591F971DEE1B5C1AE11804
:100040007C172A16EC14BF13A31298119B10AC0F47
:10005000CB0EF60D2E0D700CBD0B150B750ADF09BE
:100060005109CB084D08D6076507FB0696063806EA
:10007000DE058A053A05EF04A80465042604EA03B0
:10008000B2037D034B031B03EF02C4029D02770200
:10009000540232021202F501D801BE01A5018D0100
:1000A000770162014E013B01290119010901FA00A2
:1000B000EC00DE00D200C600BB00B000A6009D0030
:1000C00094008C0084007C0075006F006800630061
:1000D0005D00580053004E004A00450041003E00BC
:1000E0003A003700340031002E002B002900270091
:1000F0002400220020001E001D001B001900180013
:1001000011241FBECFEDCDBF10E0A0E6B0E0EEE4BD
:10011000F7E002C005900D92A436B107D9F710E0C0
:10012000A4E6B0E001C01D92A13AB107E1F7C2D147
:100130000CC366CFCF93DF93CDB7DEB7C450CDBF2E
:100140001A82198215C01C821B8206C02B813C8139
:100150002F5F3F4F3C832B832B813C8144E02A312E
:100160003407A0F329813A812F5F3F4F3A832983D7
:1001700029813A812817390730F3CC5FCDBFDF9151
:10018000CF910895282F8D3608F057C0EAE9F0E0A6
:1001900040E050E08191803809F044C0E22FF0E067
:1001A000EE0FFF1FEA5DFF4FA591B491CA01880FC2
:1001B000991FFC01E259FF4FB183A083FC01E45871
:1001C000FF4F80917A0090917B008A0F9B1F918353
:1001D0008083FA01E656FF4F2083FA01E959FF4F69
:1001E000613069F0613018F06230C9F410C08EEFF0
:1001F0008083809164008F5F8093640008958DEF09
:100200008083809165008F5F8093650008958BEFF8
:100210008083809166008F5F8093660008958FEFE2
:10022000808308954F5F5F4F4630510509F0B2CF8C
:100230008091A0008F5F8093A0000895633030F418
:10024000E62FF0E0EF59FF4F908101C09FEFEAE900
:10025000F0E020E030E04191481721F5D901A9599B
:10026000BF4F4C914917F1F426563F4F80E8F901F2
:100270008083613059F0613018F06230D1F40CC0E5
:10028000809164008150809364000895809165009E
:10029000815080936500089580916600815080931D
:1002A000660008952F5F3F4F26303105A1F610926A
:1002B000A00008951F920F920FB60F9211248F93F2
:1002C0009F93EF93FF93809198008F5F8F7080933F
:1002D00098009CB1E8E8F0E0E80FF11D9083FF91F1
:1002E000EF919F918F910F900FBE0F901F901895D7
:1002F0001F920F920FB60F9211242F933F938F935B
:100300009F938091600088BB80917A0090917B00E0
:10031000019690937B0080937A002FEF20936000EA
:1003200020919A002038A9F020917C0030917D0026
:100330008217930771F420916E0030916F00280F9F
:10034000391F30937D0020937C008091670080935B
:10035000600080919B008038E1F020917A0030911C
:100360007B0080917E0090917F002817390789F4E7
:100370008091700090917100820F931F90937F0085
:1003800080937E0080916000909168008923809323
:10039000600080919C008038E1F020917A003091DB
:1003A0007B0080918000909181002817390789F4A3
:1003B0008091720090917300820F931F909381003F
:1003C00080938000809160009091690089238093E0
:1003D000600080919D008038E1F020917A0030919A
:1003E0007B0080918200909183002817390789F45F
:1003F0008091740090917500820F931F90938300F9
:10040000809382008091600090916A00892380939C
:10041000600080919E008038E1F020917A00309158
:100420007B0080918400909185002817390789F41A
:100430008091760090917700820F931F90938500B2
:10044000809384008091600090916B008923809359
:10045000600080919F008038E1F020917A00309117
:100460007B0080918600909187002817390789F4D6
:100470008091780090917900820F931F909387006C
:10048000809386008091600090916C008923809316
:1004900060009F918F913F912F910F900FBE0F9011
:1004A0001F90189512B887E289B980E98AB986E069
:1004B00083B90895CF93DF930F92CDB7DEB71ABA01
:1004C0008FEF87BB8CE581BB12BA1BBA87E088BB74
:1004D00080E880939A0080939B0080939C00809397
:1004E0009D0080939E0080939F001092A00020B3F7
:1004F00030E02272307022303105C9F023303105EE
:1005000024F42115310541F010C02032310531F0BD
:100510002232310551F404C011E00AC012E008C0D3
:1005200080B3806482BB14E003C010E001C013E01C
:1005300080E090E04983F3D08093990081E090E0DF
:10054000EED080936D0082E080BF93E093BF86BFC2
:1005500081E089BF10929800A5DF7894FF2400E025
:10056000498106C0D82E03C0E82E42E001C041E018
:10057000143041F18091A000882319F080B3806489
:1005800002C080B38F7B82BB80916400882319F006
:1005900080B3846002C080B38B7F82BB8091650092
:1005A000882319F080B3886002C080B3877F82BB44
:1005B00080916600882319F080B3806102C080B307
:1005C0008F7E82BB9D2D92959F70809198008017A1
:1005D00079F20F5F0F70E02FF0E0E857FF4F808156
:1005E00087FDC0CF413009F4BFCF423009F69930C2
:1005F00009F06DC0882361F4113009F078C08D2DA9
:1006000090E08F709070833091050CF086C06BC0C5
:10061000113061F48D2D90E08F70907083309105D2
:100620000CF07BC06D2D6F708E2D14C0123031F028
:10063000133091F480919900E81618F48E2D60E043
:1006400009C080916D00E81618F48E2D61E002C09B
:100650008E2D62E097DD61C0143009F088CFFF2055
:1006600031F485E4E81689F580B384602BC0E1E0BD
:10067000FE1641F480B3886082BBE092990042E0AC
:10068000F42E23C0F2E0FF1601F5E0926D006091B8
:1006900099006E15A8F480E090E049D081E090E0E8
:1006A00060916D0044D080B3806182BB84E690E0AD
:1006B00041DD80B38F7E82BB84E690E03BDDF3CFEB
:1006C00080B3877F82BBFF24F39441E07ECF9830D4
:1006D00009F04DCF113059F42D2D30E02F703070CE
:1006E00023303105D4F46D2D6F708E2D15C012306E
:1006F00039F0133009F03BCF80919900E81618F4D7
:100700008E2D60E009C080916D00E81618F48E2DE2
:1007100061E002C08E2D62E091DD41E02BCFE199D6
:10072000FECF1FBA8EBBE09A99278DB30895262F6E
:10073000E199FECF1CBA1FBA8EBB2DBB0FB6F89441
:0E074000E29AE19A0FBE01960895F894FFCF59
:04074E0007FEFDFBAA
:00000001FF
